:06090600C2A17F197E0072
:10090C00E4FDFCC3ED9FEC9E50070DBD00010C8077
:01091C00F2E8
:01091D0022B7
:05098000D2A0D2A1226B
:10094600D2A0D2A17F327E0012090CC2A002090CED
:10091E00120906D2A012090CD2A112090CC2A07F94
:04092E003202090C7C
:10093200120906C2A012090CD2A112090CD2A07F80
:040942003202090C68
:0F095600120906C2A012090CD2A17F3202090CAD
:0F096500120906D2A012090CD2A17F3202090C8E
:02080000AB0744
:10080200E4FAC2A17F327E0012090CA802EB088032
:1008120002C333D8FC30E704D2A08002C2A012097E
:1008220008D2A17F3212090C0ABA08D6C2A1C2A00C
:0C083200120908D2A17F3212090CA2A00A
:01083E002297
:10083F00E4FBFAC2A1D2A07F327E0012090CD2A132
:10084F007F1912090CA2A0E433F9C374079AFFF8B9
:10085F00E9088002C333D8FC42037F327E001209BD
:07086F000C0ABA08CEAF032A
:01087600225F
:1008DF008E098F0AA90580077FA012080050051204
:1008EF00094680F4E509FF120800AF0A120800AFAD
:0708FF00011208000209329A
:040877008E098F0A4D
:10087B00E4F980077FA0120800500512094680F4A6
:10088B00E509FF120800AF0A12080012091E7FA12A
:10089B0012080012083FA907120965120932AF01AD
:0108AB00222A
:1008AC00E4FB750861C2B0C2A0C2A1120980AD08F8
:1008BC007F01FE1208DF7F017E00120877AB07EB89
:1008CC00B508FCD2B07F207E4E12090CC2B01209C2
:0308DC000C80ECA1
:030000000209747E
:0C097400787FE4F6D8FD75810A0208AC1B
:00000001FF
